:020000040800F2
:100000003804002005010008591100083F0D0008C0
:1000100005100008C9090008411E00080000000082
:100020000000000000000000000000002916000889
:10003000A50B00080000000011150008ED170008CE
:100040001F0100081F0100081F0100081F01000810
:100050001F0100081F0100081F0100081F01000800
:100060001F0100081F0100081F0100081F010008F0
:100070001F0100081F0100081F0100081F010008E0
:100080001F0100081F0100081F0100081F010008D0
:100090001F0100081F0100081F0100081F010008C0
:1000A0001F0100081F0100081F0100081F010008B0
:1000B000511800081F0100081F0100081F01000857
:1000C0001F0100081F0100081F0100081F01000890
:1000D0001F010008611C00081F0100081F01000823
:1000E0001F0100081F0100081F010008DFF810D0E1
:1000F00000F04CFB0048004721270008AFF30080C8
:10010000380400200648804706480047FEE7FEE71F
:10011000FEE7FEE7FEE7FEE7FEE7FEE7FEE7FEE7B7
:10012000F1170008ED00000880EA010210B502F0A6
:100130000043400022D04A001FD0010E01EB1261A3
:10014000C0F35600C2F3560240F4000042F400022D
:10015000A0FB022000047F39140400D0401C50EAA8
:10016000124001D44000491EC2B20C0604EBD0106C
:10017000401C4008802A02D003E0002010BD20F07F
:100180000100002900DA0020184310BD2DE9F04DD0
:1001900081EA030404F0004B21F0004514464FF0BF
:1001A000000A23F0004150EA050220D054EA01027F
:1001B0001DD0C5F30A570246C5F31303C1F313005C
:1001C000C1F30A5640F4801543F48013A7EB0608E8
:1001D000101BD64608F2FD3873EB050002D308F178
:1001E000010801E092185B41B8F1000F03DA00202A
:1001F0000146BDE8F08D00204FF48011064684468C
:100200000EE0171B73EB050705D3121B63EB050309
:1002100006434CEA010C49084FEA300092185B4152
:1002200050EA0107EDD152EA030012D082EA04003D
:1002300083EA0501084305D0101BAB4106D2012219
:10024000002306E000224FF0004302E06FF00102BD
:1002500053101AEB06004CEB085110EB0A0041EB6F
:100260000B01BDE8F04D00F0EBB8962300221146DB
:1002700000F0B8B80EB540F2334102910021CDE94B
:1002800000110A460B4600F0EAF803B000BD20F06A
:100290000040C10DC0F3160040F400007F2901DAD0
:1002A00000207047962903DCC1F19601C8407047D1
:1002B000963988407047C1F30A5210B5C1F3130153
:1002C00040F2FF3341F480119A4201DA002010BD60
:1002D00040F233439A42A2F2334203DC524200F02E
:1002E00068F810BD904010BD00F0004230F00040B2
:1002F0000AD0C10D01F56071C0F3160042EA015148
:10030000C2084007114370470020014670470000B3
:10031000002801DBC0F10040002901DBC1F10041F0
:100320008842704730B50B46014600202022012448
:1003300009E021FA02F59D4205D303FA02F5491BB3
:1003400004FA02F52844151EA2F10102F1DC30BDC9
:100350002DE9F05F0546002092469B4688460646FA
:10036000814640241BE0284641464746224600F08D
:1003700020F853465A46C01A914110D311461846E8
:10038000224600F015FA2D1A67EB01084F46224667
:100390000120002100F00CFA17EB00094E41201E4D
:1003A000A4F10104DFDC484631462A464346BDE855
:1003B000F09F202A04DB203A21FA02F00021704746
:1003C00021FA02F3D040C2F12002914008431946BD
:1003D00070470029A8BF7047401C490008BF20F0A3
:1003E0000100704710B4B0FA80FC00FA0CF050EA3B
:1003F000010404BF10BC704749B1CCF1200421FABC
:1004000004F411FA0CF118BF012121430843A3EBB6
:100410000C01CB1D4FEA00614FEA102042BF0020C3
:1004200010BC704700EBC35010440029A4BF10BC9F
:100430007047401C490008BF20F0010010BC704705
:1004400010B5141E73F1000408DA401C41F10001DC
:1004500092185B411A4301D120F0010010BD2DE933
:10046000F04D92469B4611B1B1FA81F202E0B0FA2A
:1004700080F22032904600F09BF904460F4640EA95
:100480000A0041EA0B0153465A46084313D011466D
:1004900053EA010019D0C8F140025046FFF789FF26
:1004A00005460E4650465946424600F081F908433B
:1004B00005D0012004E020463946BDE8F08D00203B
:1004C000054346EAE0762C4337430A986305E40A7D
:1004D000A0EB08000022FD0A44EA47540A3002D586
:1004E00000200146E9E7010510196941DDE90845E9
:1004F00000196941BDE8F04DA2E72DE9FE4F8046A5
:1005000081EA0300C00F0C46009021F0004123F067
:100510000045B8EB0200A94105D24046214690466D
:100520001C460B46024623F00040104347D0270DDF
:10053000C7F30A00C3F30A510290401A0190402801
:100540006BDAC3F3130040F4801B0098924620B18D
:100550000023D2EB030A63EB0B0B01985946C0F161
:100560004002504600F024F906460D4650465946D2
:10057000019A00F02CF910EB08006141002487EA91
:10058000115284EAE7731A4340D0009A62B3019A89
:10059000012A4FEA075215DC001B61EB02014FF004
:1005A000004202EA0752CDE90042001C41F58011E9
:1005B00032462B46FFF753FF03B0BDE8F08F4046AD
:1005C0002146F9E7001B61EB0201001C41F5801395
:1005D00000185B412018A2F5001747EB030140EA21
:1005E000D570B6196D4111E06D084FEA360645EA3F
:1005F000C0754FEA0752001B61EB0201001C41F578
:10060000801149084FEA30000019514132462B460B
:1006100003B0BDE8F04FFFF713BF00980122400080
:100620000023D0EB020263EBE073009821464FEA0F
:10063000E074B8EB000061EB0401E9E783F00043EC
:100640005BE781F0004158E72DE9FE4F81EA0304A2
:1006500004F0004421F0004100944FF0000B23F01F
:10066000004350EA01045ED052EA03045BD0C3F3B6
:100670000A54C1F30A552C44A4F2F3340194A0FBAC
:100680000254C1F3130141F48011C3F3130343F483
:10069000801301FB024400FB034E840A970A44EADC
:1006A000815447EA8357A4FB076802958D0A05FB2E
:1006B00007854FEA932C04FB0C542705029D4FEA53
:1006C000065847EA1637B5EB08056EEB070C870EA0
:1006D000920E47EA811742EA8312A7FB0201B6EBAA
:1006E0000B0164EB00042B0D43EA0C335E1844EB62
:1006F0001C50DA465146E7FB0201C5F313044FEAEA
:100700000B3343EA14534FEA0432019C43EA0603D5
:10071000A4F10C040294009CCDE900B4FFF79FFE05
:1007200003B0BDE8F08F00200146F9E7C1F30A529B
:10073000C1F3130140F2FF3341F480119A4202DA0F
:1007400000200146704740F233439A42A2F23342FE
:1007500002DC5242FFF72DBE00F02AB830B5041E6D
:1007600071F1000404DB4FF00044404264EB0101EE
:10077000141E73F1000405DB1C464FF00043524287
:1007800063EB0403994208BF904230BD064C074D0D
:1007900006E0E06840F0010394E807009847103451
:1007A000AC42F6D3FFF7A6FC6030000880300008AA
:1007B000202A04DB203A00FA02F100207047914021
:1007C000C2F1200320FA03F3194390407047202A16
:1007D00006DBCB17203A41FA02F043EAE07306E069
:1007E00041FA02F3D040C2F1200291400843194679
:1007F0007047000000B585B00121082000F09AFE86
:100800000121480500F086FEC020ADF8100003204D
:100810008DF812001C208DF8130004A9384800F050
:10082000F1F90020ADF804004BF6FF70ADF80600BA
:100830000020ADF808004FF48060ADF80A00000118
:10084000ADF80C002F48009069462F4800F0BEFA22
:1008500001212D4800F096FA01212B4800F09EFA64
:1008600000BF2A49284800F078FA0028F9D0002271
:100870004621254800F024FB00BF2549224800F00E
:100880006CFA0028F9D001211F4800F022FB00BFBC
:100890001F49891C1C4800F060FA0028F8D001218B
:1008A000194800F087FAC82000F07DF901211648A8
:1008B00000F074FA00BF1549134800F04EFA002802
:1008C000F9D000224621104800F0FAFA00BF104982
:1008D0000D4800F042FA0028F9D010210A4800F033
:1008E000F8FA00BF0A49891C074800F036FA0028C8
:1008F000F8D00121044800F05DFA05B000BD000009
:10090000000C0140A08601000054004001000300DB
:10091000820007002DE9F047B42000F044F90121DE
:10092000264800F03BFA00BF2549244800F015FA9C
:100930000028F9D001224621204800F0C1FA00BF6A
:100940001F49491C1D4800F008FA0028F8D000BFD4
:100950001B493F31194800F000FA0028F8D0174829
:1009600000F0AAFA04460021144800F0EAF9012137
:10097000124800F01FFA00BF11493F310F4800F044
:10098000ECF90028F8D00D4800F096FA814649EAC3
:10099000042A5046FFF76EFC07464FF03332094BEE
:1009A000FFF7F4FB0546FFF786FC1FFA80FA0121EA
:1009B000024800F0C6F95046BDE8F08700540040F8
:1009C000010003003333F33F00BFFEE710B50024FE
:1009D000002000F049F804E0601CC4B2012000F0DF
:1009E000FAF84FF480710F4800F097F908B1642CC1
:1009F000F2DB642C01DB012010BD002404E0601C4C
:100A0000C4B2012000F0E7F84FF48071054800F00F
:100A100084F908B9642CF2DB642C01DB0120EBE7DC
:100A20000020E9E70008014008B50121042000F09A
:100A300081FD4FF48070ADF8000010208DF80300A8
:100A400003208DF802006946064800F0DBF84FF4F9
:100A50008071044800F06CF900F08CF8FFF7B6FFE5
:100A600008BD00000008014038B5044654B14FF4F9
:100A70008070ADF8000003208DF8020010208DF882
:100A8000030006E04FF48070ADF8000004208DF8FC
:100A900003006946014800F0B5F838BD0008014080
:100AA00010B5002404E0601CC4B2012000F093F8EB
:100AB0004FF48071104800F030F908B1642CF2DB7B
:100AC000002404E0601CC4B2012000F084F84FF45C
:100AD0008071094800F021F908B9642CF2DB282064
:100AE00000F079F84FF48071034800F016F908B16E
:100AF000012010BD0020FCE70008014070B5002473
:100B0000002506E06006040EFFF7CAFF0443681CD8
:100B1000C5B2082DF6DB204670BD7CB505460E46F5
:100B200000F028F8FFF752FFF8B9002405E0FFF7BE
:100B3000E5FF0DF80400601CC4B2052CF7DB9DF83E
:100B400000009DF8011008449DF8021008449DF82B
:100B5000031008449DF80410884208D19DF8000055
:100B600030709DF80200287001E001207CBD00205B
:100B7000FCE7000010B50120FFF776FF4FF480710D
:100B8000074800F0D3F8142000F00DF84FF48071FE
:100B9000034800F0CDF81E2000F01DF810BD000045
:100BA00000080140704700B5034603E04FF47A7037
:100BB00000F011F8181EA3F10103F7D100BD10B524
:100BC000044603E04FF47A70FFF7EDFF201EA4F116
:100BD0000104F7D110BD00EBC001C9004FF0E022C5
:100BE0005161002191610521116100BF4FF0E021A9
:100BF000096901F480310029F8D004214FF0E02286
:100C0000116170472DE9F0410246002500260020C1
:100C100000230024002791F803C00CF00F0591F881
:100C200003C00CF0100CBCF1000F03D091F802C00F
:100C30004CEA050591F800C0BCF1000F31D01468F2
:100C400000202BE04FF0010C0CFA00F3B1F800C0CB
:100C50000CEA03069E4220D183004FF00F0C0CFAE1
:100C600003F7BC4305FA03FC4CEA040491F803C003
:100C7000BCF1280F06D14FF0010C0CFA00FCC2F8B1
:100C800014C00AE091F803C0BCF1480F05D14FF041
:100C9000010C0CFA00FCC2F810C0401C0828D1D38B
:100CA0001460B1F800C0BCF1FF0F34DD54680020BF
:100CB0002EE000F1080C4FF0010808FA0CF3B1F82F
:100CC00000C00CEA03069E4221D183004FF00F0CB6
:100CD0000CFA03F7BC4305FA03FC4CEA040491F850
:100CE00003C0BCF1280F05D100F1080C08FA0CF87C
:100CF000C2F8148091F803C0BCF1480F07D100F18D
:100D0000080C4FF0010808FA0CF8C2F81080401CDB
:100D10000828CED35460BDE8F081024600209368D5
:100D20000B400BB1012000E000207047416170478B
:100D3000016170470AB1016100E04161704700BF85
:100D4000FEE721B1028842F48062028004E002885A
:100D50004FF6FF331A400280704770B502460024F8
:100D6000002500230020958A138B1B0445EA030607
:100D700026F07F4404EA01068E4201D1012000E002
:100D8000002070BD21B1028842F00102028004E01F
:100D900002884FF6FE731A400280704721B1028824
:100DA00042F48072028004E002884FF6FF631A402A
:100DB0000280704721B1028842F40072028004E090
:100DC00002884FF6FF531A40028070472DE9F04326
:100DD00085B004460D460026B1460427DFF8CC80D6
:100DE000A6884FF6C0700640684600F0B3FBDDF8F9
:100DF00008802F48B8FBF0F01FFA80F946EA090690
:100E0000A68020884FF6FE710840208000262949E0
:100E1000286888420CD828684000B8FBF0F087B2F8
:100E2000042F00DA04273E4309F10100208427E063
:100E3000E8884BF6FF71884206D1286800EB400035
:100E4000B8FBF0F087B209E0286800EBC00101EBC5
:100E50000010B8FBF0F087B247F48047C7F30B00EF
:100E600008B947F0010747F4004006434FF4967075
:100E700009FB00F04FF47A7190FBF1F0401C2084E4
:100E8000A683208840F00100208026884FF6F530A8
:100E90000640A8886989084306432680A8892989CD
:100EA0000843208105B0BDE8F083000000127A00FD
:100EB00040420F00A08601000146088AC0B2704778
:100EC00012B141F0010102E04FF6FE7319400182B8
:100ED00070470182704710B50024022000F01CF812
:100EE0000446204610BD10B50024042000F014F87C
:100EF0000446204610BD10B500F086F80A20FFF722
:100F000052FE44F22751002000F032F84FF42051F5
:100F1000052000F02DF810BD70B50546002400F046
:100F2000E5F8802000F0CDF800F096F8284600F0B3
:100F3000C8F800F091F800F0E7F800F0D7F8812049
:100F400000F0BFF800F088F800F095F804460020A3
:100F500000F0ABF84FF6FF7000EA042400F08BF8C5
:100F60000443012000F0A1F800F0CEF8204670BD47
:100F700070B505460C46002600F0B8F8802000F059
:100F8000A0F800F069F8284600F09BF800F064F83B
:100F90002612304600F095F800F05EF8E6B23046D2
:100FA00000F08FF800F058F800F0AEF870BD0000C7
:100FB00010B540210148FFF7B9FE10BD00080140FF
:100FC00010B540210148FFF7B3FE10BD00080140F5
:100FD00008B50121042000F0ADFA10208DF80300BF
:100FE0004020ADF8000003208DF802006946044857
:100FF000FFF708FE40210248FFF798FE08BD0000F9
:101000000008014000BFFEE708B50121042000F000
:1010100091FA14208DF803003020ADF80000032071
:101020008DF8020069460448FFF7ECFD30210248C4
:10103000FFF77EFE08BD00000008014010B520212A
:101040000448FFF76AFE04460A20FFF7C4FD204665
:1010500010BD00000008014010B5012000F06EF83E
:10106000012000F05DF8FFF7E9FF0446002000F0E2
:1010700057F8204610BD70B50025012000F05EF83D
:1010800000240EE0012000F04BF8FFF7D7FF012805
:1010900002D1802020410543002000F041F8601C6F
:1010A000C4B2082CEEDB284670BD10B504462046BD
:1010B00000F044F8012000F033F8002000F030F890
:1010C00010BD70B5054600240DE08021214101EAE4
:1010D000050000F033F8012000F022F8002000F0B5
:1010E0001FF8601CC4B2082CEFDB70BD10B50120E6
:1010F00000F024F8012000F013F8002000F01EF8A2
:10110000002000F00DF810BD10B5002000F016F81A
:10111000012000F005F8012000F010F810BD0000DB
:1011200010B50446224610210348FFF703FE0A20AB
:10113000FFF751FD10BD00000008014010B5044646
:10114000224620210348FFF7F5FD0A20FFF743FD63
:1011500010BD0000000801407047000070B500217C
:1011600000230F22C47804B3154C246804F4E0640F
:10117000C4F5E064210AC1F10403CA40447804FACA
:1011800003F184781440214309010E4C0678A155DF
:10119000047804F01F050124AC4005786D11AD0002
:1011A00005F1E025C5F8004109E0047804F01F05C9
:1011B0000124AC40044D0678761145F8264070BDF8
:1011C0000CED00E000E400E080E100E002490143B2
:1011D000024A1160704700000000FA050CED00E0C3
:1011E00070B500240EE00021204600F0F0F8002544
:1011F00004E0002000F07CF9681CC5B2802DF8DB0B
:10120000601CC4B2082CEEDB70BD000008B50121E3
:10121000082000F08FF914208DF8030003208DF8CA
:1012200002004FF48070ADF8000069460A48FFF7ED
:10123000E9FC4FF40070ADF8000069460648FFF77E
:10124000E1FC012211020448FFF774FD0122510262
:101250000148FFF76FFD08BD000C014070B5054661
:10126000002415E08020204100EA05024FF40071BF
:101270000E48FFF75FFD012211020C48FFF75AFDEF
:1012800000224FF480710948FFF754FD601CC4B27E
:10129000082CE7DB012211020448FFF74BFD002276
:1012A0004FF480710148FFF745FD70BD000C01400F
:1012B00010B5012251020A48FFF73CFD012211023C
:1012C0000748FFF737FD00224FF400710448FFF78D
:1012D00031FD00224FF480710148FFF72BFD10BD56
:1012E000000C014010B500224FF400710648FFF7D2
:1012F00021FD012211020448FFF71CFD01225102C9
:101300000148FFF717FD10BD000C014070B5002427
:1013100006E0002500E06D1CB5F57A7FFBD3641C68
:10132000B4F57A7FF5D3FFF771FFAE2000F0D0F867
:10133000D52000F0CDF8802000F0CAF8A82000F0F9
:10134000C7F83F2000F0C4F8D32000F0C1F8002017
:1013500000F0BEF8402000F0BBF8A12000F0B8F883
:10136000C82000F0B5F8DA2000F0B2F8122000F042
:10137000AFF8812000F0ACF8CF2000F0A9F8D92018
:1013800000F0A6F8F12000F0A3F8DB2000F0A0F8B0
:10139000302000F09DF8A42000F09AF8A62000F07C
:1013A00097F88D2000F094F8142000F091F8AF2009
:1013B00000F08EF8FFF714FF70BD10B50246012053
:1013C00000E050430B1EA1F10101FAD110BD70B530
:1013D00005460C4645F0B00000F07AF8102141EACD
:1013E000141000F075F804F00F0000F071F870BDF3
:1013F0002DE9F04105460E461746721ED206110E23
:101400006A1E5206100EFFF7E2FF002409E0A7F162
:101410002001134A02EB0111085D00F069F8601C1D
:10142000C4B2082CF3DB721ED206110E6A1E012311
:1014300003EB4202D0B2FFF7CAFF00240BE0A7F192
:101440002001074A02EB011204F10801505C00F090
:101450004FF8601CC4B2082CF1DBBDE8F08100003D
:10146000702A00082DE9F04780460E4617461D46B3
:10147000002415E0281B411E0A20FFF79EFFB7FB42
:10148000F0F00A21B0FBF1F201FB120000F130098B
:101490003019C1B24A464046FFF7AAFF601CC4B2E9
:1014A000AC42E7DBBDE8F0872DE9F04107460E4688
:1014B0001546002407E02A5D3019C1B23846FFF70F
:1014C00097FF601CC4B2285D0028F4D1BDE8F0810C
:1014D00010B50446FFF7ECFE7820FFF7BFFE0020B2
:1014E000FFF7BCFE2046FFF7B9FEFFF7FBFE10BD7D
:1014F00010B50446FFF7DCFE7820FFF7AFFE402072
:10150000FFF7ACFE2046FFF7A9FEFFF7EBFE10BD8C
:101510007047000029B1064AD2690243044BDA61E0
:1015200004E0034AD2698243014BDA61704700004C
:101530000010024029B1064A92690243044B9A61A5
:1015400004E0034A92698243014B9A6170470000AC
:101550000010024030B500210022002400232D4D50
:101560006D6805F00C0121B1042905D0082923D1AB
:1015700005E0294D056022E0274D05601FE0254D5F
:101580006D6805F47012234D6D6805F480340225F2
:1015900005EB92421CB9214D554305600BE01D4DF2
:1015A0006D6805F400351DB11C4D5543056002E022
:1015B000194D5543056002E0174D056000BF00BF9F
:1015C000144D6D6805F0F0010909154D6B5C056857
:1015D000DD4045600F4D6D6805F4E061090A104D6E
:1015E0006B5C4568DD4085600A4D6D6805F46051AF
:1015F000C90A0B4D6B5C4568DD40C560054D6D68E3
:1016000005F44041890B074D6B5CC568B5FBF3F5EC
:10161000056130BD0010024000127A0000093D0053
:1016200000000020100000207047000000B587B0C7
:1016300001218803FFF77EFF01210420FFF77AFFD5
:1016400018208DF81B004FF40070ADF8180003202F
:101650008DF81A0006A92148FFF7D4FA48208DF822
:101660001B004FF48060ADF8180003208DF81A00BD
:1016700006A91A48FFF7C6FA4FF4E130029000209D
:10168000ADF814000C20ADF812000020ADF81000E9
:10169000ADF80E00ADF80C0002A9114800F060FB97
:1016A000012240F225510E4800F035FB4FF4A060B6
:1016B000FFF78CFD25208DF8040001208DF8070030
:1016C0008DF805008DF8060001A8FFF747FD012100
:1016D000034800F0DDFA07B000BD0000000801403B
:1016E0000038014010B504462146054800F0A4FB2F
:1016F00000BF8021024800F0D7FA0028F9D010BDC1
:101700000038014010B500F001F810BD0CB5002004
:10171000019000903348006840F4803031490860FF
:1017200000BF3048006800F4003000900198401C71
:101730000190009818B90198B0F5A06FF1D129482F
:10174000006800F4003010B10120009001E000209A
:1017500000900098012843D12348006840F0100011
:10176000214908600846006820F003000860084628
:10177000006840F0020008601A4840681949486053
:101780000846406848600846406840F48060486009
:101790000846406820F47C1048600846406840F4E1
:1017A000E81048600846006840F08070086000BF9C
:1017B0000C48006800F000700028F9D00948406823
:1017C00020F00300074948600846406840F00200E6
:1017D000486000BF0348406800F00C000828F9D1B9
:1017E0000CBD0000001002400020024070470000C5
:1017F00010B51348006840F0010011490860084620
:101800004068104908400E494860084600680E4983
:1018100008400B4908600846006820F480200860F2
:101820000846406820F4FE0048604FF41F008860BE
:10183000FFF768FF4FF000600449086010BD00002A
:10184000001002400000FFF8FFFFF6FE08ED00E088
:1018500070B50121880700F053F901286CD1FFF71A
:1018600059F84C4908800423084602880621184686
:10187000FFF7F8FDFFF72FFB47490880FFF733FB21
:101880004649088044480088FEF7EFFC0446444976
:10189000FEF74AFC4349086040480088FEF7E5FC33
:1018A00004464149FEF740FC404908604FF07E5134
:1018B0003E480068FEF72CFD02D200203B4908603C
:1018C0003B493C48FFF729F902233A4802780621B0
:1018D0000320FFF7C7FD0223354802780E210320BD
:1018E000FFF7C0FD34A000F0ADFA0220FFF767F962
:1018F0003048017834A000F0A5FA0120FFF75FF925
:101900003DA000F09FFA0220FFF759F9284801781E
:101910003DA000F097FA0120FFF751F945A000F033
:1019200091FA0220FFF74BF91E480068FEF7DCFC35
:10193000044622460B4600E02AE042A000F082FA6C
:101940000120FFF73CF93BA000F07CFA0220FFF7F2
:1019500036F916480068FEF7C7FC044622460B46D7
:1019600043A000F06FFA0120FFF729F94BA000F027
:1019700069FA0220FFF723F9064801884BA000F01E
:1019800061FA0120FFF71BF90121880700F0A9F88F
:1019900070BD00002C0000201A0000201C00002058
:1019A0000AD7A33A2000002017B7D138240000201E
:1019B000170000201400002041542B434950534588
:1019C0004E443D34320D0A007B2273656E736F7294
:1019D0005F746167223A2274656D70657261747517
:1019E000726532222C2276616C7565223A2225645A
:1019F000227D0D0A0000000041542B4349505345FD
:101A00004E443D33390D0A007B2273656E736F724D
:101A10005F746167223A2268756D6964697479320E
:101A2000222C2276616C7565223A222564227D0D76
:101A30000A00000041542B43495053454E443D3465
:101A4000310D0A007B2273656E736F725F7461677C
:101A5000223A22766F6C7461676532222C2276619D
:101A60006C7565223A22252E3366227D0D0A000010
:101A70007B2273656E736F725F746167223A2263B3
:101A8000757272656E7432222C2276616C756522D5
:101A90003A22252E3366227D0D0A000041542B4345
:101AA000495053454E443D34340D0A007B22736542
:101AB0006E736F725F746167223A22696C6C756D28
:101AC000696E616E636532222C2276616C756522C7
:101AD0003A2225303464227D0D0A0000CA43028276
:101AE0007047CA430282704721B1028842F0010266
:101AF000028004E002884FF6FE731A4002807047AD
:101B000030B50246002000230024158A05EA0103AF
:101B1000958905EA010413B10CB1012000E0002011
:101B200030BD1AB183890B43838102E083898B43E3
:101B30008381704701894FF6F87211400181704727
:101B4000002202881D4B98420ED01D4B98420BD0AC
:101B5000B0F1804F08D01B4B984205D01A4B9842E9
:101B600002D01A4B984204D14FF68F731A404B881B
:101B70001A43174B984207D0164B984204D04FF6A1
:101B8000FF431A40CB881A4302808B8883850B88D9
:101B900003850A4B98420BD0094B984208D00E4B54
:101BA000984205D00D4B984202D00D4B984201D17E
:101BB0000B7A03860123838270470000002C0140CA
:101BC000003401400004004000080040000C0040C8
:101BD000001000400014004000400140004401405B
:101BE000004801401FB501210846FFF793FC4FF064
:101BF0008040FFF79FFF0020ADF80A00ADF8060017
:101C00000920ADF8080041F61F40ADF8040000209F
:101C10008DF80C0001A94FF08040FFF791FF0121E2
:101C20008807FFF75BFF012211469007FFF779FF56
:101C30004FF4A060FFF7CAFA1C208DF800000120C5
:101C40008DF8030002208DF801008DF8020068462F
:101C5000FFF784FA01218807FFF746FF1FBD000048
:101C600010B540F22551094800F02BF868B107483B
:101C7000001D0088C4B2582C02D1FFF7A1F903E07F
:101C8000592C01D1FFF794F900BF10BD0038014075
:101C900021B1828942F40052828104E082894DF6AA
:101CA000FF731A408281704702460020B1F5007F21
:101CB00000D100BF13880B400BB1012000E00020D1
:101CC000704770B50246002400230025002040F62E
:101CD0006A16B14200D100BFC1F3421501F01F03E3
:101CE000012606FA03F3012D02D19689334006E05E
:101CF000022D02D1168A334001E0968A33400C123D
:101D0000012606FA04F41688344013B10CB1012000
:101D100000E0002070BDF0B5034600240026002539
:101D2000002040F66A17B94200D100BF1846C1F33F
:101D3000421401F01F06012707FA06F5012C01D114
:101D40000C3004E0022C01D1103000E014301AB144
:101D500007682F43076002E00768AF430760F0BDE4
:101D60002DE9F04786B005460E460024A24600BF86
:101D7000A1460027B08900B100BF2F462C8A4CF63F
:101D8000FF700440F08804432C82AC894EF6F310B7
:101D90000440B08831890843718908430443AC8109
:101DA000AC8A4FF6FF400440B0890443AC8201A8DE
:101DB000FFF7D0FB1F48874202D1DDF810A001E0F9
:101DC000DDF80CA0A88900F4004040B10AEBCA007D
:101DD00000EB0A1031684900B0FBF1F807E00AEBAC
:101DE000CA0000EB0A1031688900B0FBF1F86420EA
:101DF000B8FBF0F004012009642101FB1089A889D7
:101E000000F4004040B1322000EBC900B0FBF1F01B
:101E100000F00700044308E0322000EB09106421C1
:101E2000B0FBF1F000F00F0004432C8106B0BDE8D8
:101E3000F087000000380140C1F30802828070473B
:101E400000BFFEE70FB4054B10B503A9044A029882
:101E500000F0DAF810BC5DF814FB00000F27000852
:101E60003000002002E008C8121F08C1002AFAD181
:101E700070477047002001E001C1121F002AFBD10A
:101E8000704700002DE9FF5F82B00021DDE90430DA
:101E9000020DDDF840B0034318D044F61050A2F212
:101EA000FF3242431514119801281FD0A5EB0B00F7
:101EB000401C5FEA000A4FF000064E4FDFF83891F1
:101EC000B046504615D5CAF1000413E0119801241C
:101ED0004AA3012801D16FEA0B010298119AC0E9C7
:101EE0000031C0E9024206B0BDE8F09FCBF100002E
:101EF000DFE704460021404A491842EB0450CDE98F
:101F0000001012E0E00707D032463B464046494603
:101F1000FEF79AFB8046894632463B4610461946F4
:101F2000FEF792FB06460F466410002CEAD1DDE96D
:101F30000401DDE90023BAF1000F06DAFEF784FBA5
:101F400042464B46FEF780FB05E0FEF71FF942468E
:101F50004B46FEF71BF904460E460022284BFEF7BF
:101F6000FDFB03D84FF0FF30014607E00022254B70
:101F700020463146FEF7C1FAFEF7D8FB102409E0EF
:101F8000002C0ADB0A220023FEF7E2F9039B303221
:101F90001A55641E50EA0102F2D1641C039AC4F17E
:101FA00011031444119A012A03D0012208430DD1D0
:101FB0000AE0084304D000204FF0110B119072E7A3
:101FC000A3EB0B056D1E0DE05B4504DD4FF0000239
:101FD00005F1010504E003DA4FF00002A5F1010567
:101FE000002AECD002981199C0E90231C0E90045FD
:101FF00079E70000000014400000F03F30000000CE
:102000000000F0430000E03F2DE9FF4F95B09A46F5
:10201000884606460025EEE1252877D1002427468C
:10202000F94A0121039400E0044316F8013F203BE4
:1020300001FA03F01042F7D130782A2811D06FF05E
:102040002F033078A0F13002092A16D8039A44F001
:10205000020402EB820203EB42021044761C03905E
:10206000EFE758F8042B0392002A03DA504244F4B5
:102070000054039044F00204761C30782E2816D1C8
:1020800016F8010F44F004042A280DD06FF02F0237
:102090003078A0F13003092B09D807EB870302EB56
:1020A0004303C718761CF3E758F8047B761C307896
:1020B0006C280FD006DC4C2817D068280DD06A2871
:1020C00014D104E0742810D07A280FD10DE044F424
:1020D00000140AE044F4801401E044F440147278DF
:1020E000824202D104F58014761C761C3078662872
:1020F0000BD013DC582877D009DC002875D0452890
:10210000F6D04628F4D047281AD193E118E0632886
:1021100035D0642879D0652812D18BE1702873D02E
:1021200008DC6728F1D069286FD06E280DD06F28A1
:1021300006D1ACE073282CD0752874D0782853D001
:102140005246179990476D1C54E1C4F3025002287F
:1021500009D003280DD0D8F8001004280DD00D6048
:1021600008F1040846E1D8F80010EA17C1E9005266
:10217000F6E7D8F800100D80F2E70D70F0E718F8D8
:10218000041B8DF8001000208DF80100EB460120A3
:1021900003E058F804BB4FF0FF3061074FF0000137
:1021A00002D40DE009F101018946B9420FDA8145F7
:1021B000F8DB1BF809100029F4D108E009F101014E
:1021C00089468142FADB1BF809100029F6D10398F1
:1021D0005346A0EB090721463846179A00F080FACB
:1021E000284400EB090507E044E008E10DE01BF896
:1021F000010B524617999047B9F10109F7D253469E
:1022000021463846179AF2E039E00A21C4F3025217
:102210004FF0000B0091022A06D058F8040BC117AA
:10222000032A09D00AE023E008F1070020F00702A2
:10223000F2E80201904605E000B2C117042A01D17C
:1022400040B2C117002906DA0A460021404261EB7C
:1022500002012D2202E0220504D52B228DF8042054
:10226000012203E0E20701D02022F7E7914657E080
:102270000A2100E010214FF0000B00910BE010212B
:102280004FF0000B44F004040827009103E00820FD
:102290004FF0000B0090C4F30252022A05D058F808
:1022A000040B0021032A08D008E008F1070020F001
:1022B0000702F2E80201904603E080B2042A00D14E
:1022C000C0B24FF0000922072AD53278702A07D011
:1022D000DDF800C08CF0100C5CEA0B0C05D00EE0B1
:1022E00040228DF80420012208E050EA010306D0C4
:1022F00030238DF804308DF8052002229146009B92
:1023000083F0080353EA0B030AD150EA010201D11A
:10231000620705D530228DF804204FF001097F1E99
:102320003278582A04D039A20C920CAA02920BE0FF
:102330003BA2F9E75B46009AFEF70AF80C9B9B5C10
:10234000029A521E0292137050EA0102F2D10298D0
:1023500004A9081A00F1200B600702D524F4803488
:1023600000E001275F4502DDA7EB0B0000E0002045
:1023700000EB0B01009003984944401A0390E003DE
:1023800006D453462146179A039800F0A9F905444C
:10239000002706E001A85246C05D179990476D1CC2
:1023A0007F1C4F45F6DBE0030CD553462146179AB8
:1023B000039800F095F9054404E03020524617993F
:1023C00090476D1C0099481E00900029F5DC08E03C
:1023D0000298029952460078491C02911799904739
:1023E0006D1CBBF10001ABF1010BF1DC5BE100F016
:1023F00065F90544761C307800287FF40DAE19B0DD
:102400002846BDE8F08F0000092801003031323342
:102410003435363738396162636465660000000020
:10242000303132333435363738394142434445460A
:1024300000000000600700D4062708F1070020F024
:102440000700F0E80223804603F0004C5FEA0C002E
:1024500001D097A009E0200501D596A005E0E0078E
:1024600001D095A001E0AFF24C001390307823F03A
:10247000004365280CD006DC452809D046281DD02D
:1024800047287FD13BE0662818D067287AD136E00C
:102490000021112F01DB112000E0781CCDE90001A3
:1024A00004A90CA8FFF7EEFCDDE90D010C9A4FF032
:1024B000000B07F10109109200914EE04FF000402F
:1024C0000097CDE9011004A90CA8FFF7DBFCDDE9BA
:1024D0000D020C9B0F994FF0000B91461093009248
:1024E00011B9791C00EB0109B7EB090003D4C0F165
:1024F000FF3B07F10109A9EB0700019042E0012F22
:1025000000DA01270021112F01DD112000E03846FB
:10251000CDE9000104A90CA8FFF7B4FCDDE90D0129
:102520000C9A00914FF0000BB946109221070FD47E
:10253000009A4A4503DA914601E0A9F10109B9F18F
:10254000010F05DD109AA9F10101515C3029F4D089
:10255000B84202DA10F1040F03DA0121CDE90110CB
:1025600010E0002803DC8344A9EB000102E0411CD9
:10257000494500DD8946A0EB0B00401C01904FF05F
:1025800000400290200705D40198484502DB4FF037
:10259000FF30019000208DF84B0002980DF14B07A1
:1025A000B0F1004F25D002200C902B200D90029806
:1025B00000280CDA404202902D200D9007E00A21FD
:1025C0000298FDF7AFFE3031029007F8011D0C991B
:1025D000481E0C900029F2DC02980028EFD1791EE9
:1025E0000D980870307800F0200040F0450007F8A2
:1025F000020D11A8C01BC01D02901398007800B1F5
:10260000012000EB0901019801EBE07102980144FF
:102610000398401A401E0390E00306D45346214617
:10262000179A039800F05CF805441398007818B1E5
:102630005246179990476D1CE00323D55346214617
:10264000179A039800F04CF805441BE0BBF1000F0B
:1026500007DB0098584504DD1098179910F80B0017
:1026600001E0179930205246904701980BF1010B79
:10267000401E05F10105019004D12E205246179904
:1026800090476D1CB9F10001A9F10109DEDC05E0FC
:1026900017F8010B5246179990476D1C0299481E76
:1026A00002900029F4DC53462146179A03989EE6CF
:1026B0002D0000002B000000200000002DE9F0415B
:1026C000044600251E461746880404D405E0394612
:1026D0002020B0476D1C641EF9D52846BDE8F08166
:1026E0002DE9F041044600251E469046C80301D559
:1026F000302700E02027880404D505E0414638460D
:10270000B0476D1C641EF9D52846BDE8F08170B550
:1027100004460D46E0B2FEF7E5FF204670BD00001E
:10272000FEF756FCFEF7F2FDFEF77EF9FEF77EFFA0
:10273000FEF76AFCFEF7DFFBFEF75CF897A20121CB
:102740000846FEF7B1FE96A201210220FEF7ACFE7C
:1027500094A201210320FEF7A7FE94A209210320E1
:10276000FEF7A2FE93A201210420FEF79DFE93A096
:10277000FFF768FB0A20FEF722FA93A0FFF762FB3F
:102780000A20FEF71CFA98A0FFF75CFB0120FEF779
:1027900016FAA0A0FFF756FB0120FEF710FAA1A041
:1027A000FFF750FB0520FEF70AFAFFF71BFAF3E0EC
:1027B000FEF791FBA1490880FEF795FBA049088030
:1027C0009E480088FDF751FD04469E49FDF7ACFC8C
:1027D0009D4908609A480088FDF747FD04469B49DB
:1027E000FDF7A2FC9A4908604FF07E5198480068B6
:1027F000FDF78EFD02D200209549086095A20521C3
:102800000120FEF751FE90480068FDF740FD0446A8
:102810000123224604211846FEF724FE8E498A48E9
:102820000068FDF781FC0546FDF731FDC0B20A21C5
:1028300090FBF1F201FB1204012322460621184607
:10284000FEF710FE854980480068FDF76DFC0546DF
:10285000FDF71DFDC0B2642190FBF1F201FB1204F3
:102860000123224607211846FEF7FCFD7C497648E5
:102870000068FDF759FC0546FDF709FDC0B24FF4AD
:102880007A7190FBF1F201FB120401232246082128
:102890001846FEF7E7FD73496B480068FDF744FCF6
:1028A0000546FDF7F4FCC0B242F2107190FBF1F264
:1028B00001FB12040123224609211846FEF7D2FD2E
:1028C00069A20A210120FEF7EFFD62A20521022084
:1028D000FEF7EAFD5E480068FDF7D9FC04460123D7
:1028E000224604210220FEF7BDFD5B4958480068DE
:1028F000FDF71AFC0546FDF7CAFCC0B20A2190FBA1
:10290000F1F201FB12040123224606210220FEF708
:10291000A9FD52494E480068FDF706FC0546FDF743
:10292000B6FCC0B2642190FBF1F201FB120401235A
:10293000224607210220FEF795FD494944480068D8
:10294000FDF7F2FB0546FDF7A2FCC0B24FF47A7129
:1029500090FBF1F201FB1204012322460821022020
:10296000FEF780FD3F493A480068FDF7DDFB05466C
:10297000FDF78DFCC0B242F2107190FBF1F201FB49
:1029800012040123224609210220FEF76BFD37A223
:102990000A210220FEF788FD0AE7000042563A00AD
:1029A00053433A0074656D703A00000068756D69B4
:1029B0003A000000696C6C753A00000041542B52DB
:1029C00053540D0A0000000041542B43574A415014
:1029D0003D2254502D4C494E4B5F393044304338E2
:1029E000222C22220D0A000041542B4349505354FB
:1029F0004152543D22544350222C223139322E313F
:102A000036382E312E313031222C32303030300DEC
:102A10000A00000041542B43495053454E443D3178
:102A2000390D0A007B22746167223A226C65647258
:102A30006F6F6D3032227D0D0A0000001A000020F9
:102A40001C0000200AD7A33A2000002017B7D13875
:102A5000240000202E000000000020410000C84299
:102A600000007A4400401C4656000000410000006F
:102A70000000000000000000000000000000000056
:102A8000000000F8000000000000003330000000EB
:102A900000100C06100C06000000000000000000F2
:102AA00040C07840C0784000043F04043F04040064
:102AB000007088FC08300000001820FF211E000074
:102AC000F008F000E018000000211C031E211E0089
:102AD00000F00888700000001E212324192721100F
:102AE00010160E00000000000000000000000000B2
:102AF000000000E018040200000000071820400059
:102B000000020418E0000000004020180700000048
:102B1000404080F0804040000202010F01020200AC
:102B2000000000F0000000000101011F0101010090
:102B3000000000000000000080B0700000000000F5
:102B4000000000000000000000010101010101017E
:102B50000000000000000000003030000000000015
:102B600000000000806018040060180601000000EA
:102B700000E010080810E000000F102020100F00E7
:102B8000001010F8000000000020203F202000006E
:102B900000700808088870000030282422213000C6
:102BA00000300888884830000018202020110E00CE
:102BB0000000C02010F8000000070424243F240077
:102BC00000F80888880808000019212020110E004C
:102BD00000E0108888180000000F112020110E005E
:102BE00000380808C83808000000003F0000000056
:102BF0000070880808887000001C222121221C0017
:102C000000E010080810E0000000312222110F003F
:102C1000000000C0C00000000000003030000000D4
:102C20000000008000000000000080600000000044
:102C3000000080402010080000010204081020005D
:102C400040404040404040000404040404040400A8
:102C5000000810204080000000201008040201003D
:102C6000007048080808F00000000030360100003D
:102C7000C030C828E810E0000718272423140B00F0
:102C80000000C038E0000000203C2302022738206A
:102C900008F8888888700000203F202020110E004E
:102CA000C030080808083800071820202010080045
:102CB00008F808080810E000203F202020100F002E
:102CC00008F88888E8081000203F202023201800FA
:102CD00008F88888E8081000203F20000300000062
:102CE000C03008080838000007182020221E020003
:102CF00008F808000008F808203F210101213F20C2
:102D0000000808F8080800000020203F20200000EC
:102D100000000808F8080800C08080807F000000DC
:102D200008F888C028180800203F20012638200015
:102D300008F8080000000000203F2020202030007C
:102D400008F8F800F8F80800203F003F003F200096
:102D500008F830C00008F808203F200007183F009E
:102D6000E01008080810E0000F10202020100F00CD
:102D700008F808080808F000203F210101010000C0
:102D8000E01008080810E0000F18242438504F0005
:102D900008F8888888887000203F2000030C3020C5
:102DA00000708808080838000038202121221C0003
:102DB000180808F8080818000000203F200000004C
:102DC00008F808000008F808001F202020201F0035
:102DD0000878880000C83808000007380E01000095
:102DE000F80800F80008F800033C0700073C03005F
:102DF000081868808068180820302C03032C3020C5
:102E00000838C800C83808000000203F2000000033
:102E100010080808C838080020382621202018008B
:102E2000000000FE020202000000007F404040005F
:102E3000000C30C000000000000000010638C00097
:102E400000020202FE000000004040407F0000003F
:102E50000000040202020400000000000000000064
:102E60000000000000000000808080808080808062
:102E7000000202040000000000000000000000004A
:102E800000008080808000000019242222223F2040
:102E900008F8008080000000003F112020110E0083
:102EA0000000008080800000000E11202020110012
:102EB000000000808088F800000E112020103F20C4
:102EC0000000808080800000001F22222222130048
:102ED000008080F0888888180020203F2020000093
:102EE0000000808080808000006B94949493600048
:102EF00008F8008080800000203F210000203F2053
:102F000000809898000000000020203F2020000052
:102F1000000000809898000000C08080807F000042
:102F200008F8000080808000203F24022D3020001F
:102F3000000808F8000000000020203F20200000CA
:102F40008080808080808000203F20003F20003FE4
:102F50008080008080800000203F210000203F20F2
:102F60000000808080800000001F202020201F00A3
:102F7000808000808000000080FFA12020110E00D2
:102F80000000008080808000000E112020A0FF80C3
:102F9000808080008080800020203F212000010070
:102FA00000008080808080000033242424241900C5
:102FB000008080E0808000000000001F20200000D2
:102FC0008080000000808000001F202020103F2013
:102FD000808080000080808000010E3008060100A3
:102FE00080800080008080800F300C030C300F0048
:102FF00000808000808080000020312E0E31200073
:10300000808080000080808080818E7018060100A2
:1030100000808080808080000021302C22213000C0
:1030200000000000807C020200000000003F4040E1
:1030300000000000FF00000000000000FF00000092
:103040000002027C800000000040403F00000000C1
:10305000000601010202040400000000000000005C
:10306000803000080000002034000000641E0008CA
:10307000B43000083400002004040000741E00086E
:10308000000000000102030401020304060708090E
:10309000020406080000000000000000000000001C
:1030A0000000000000000000000000000000000020
:0430B000000000001C
:04000005080000ED02
:00000001FF
